:1000000000800020BD010000852E0000492E000068
:10001000492E0000492E0000492E0000492E000004
:10002000492E0000492E0000492E0000852E0000B8
:10003000852E0000492E0000852E0000392E00007C
:10004000852E0000852E0000852E0000852E0000E4
:10005000852E0000852E0000852E0000852E0000D4
:10006000852E0000852E0000852E0000852E0000C4
:10007000852E0000852E0000852E0000852E0000B4
:10008000852E0000852E0000852E0000852E0000A4
:10009000852E0000852E0000852E0000852E000094
:1000A000552B0000652B0000852E0000852E0000DA
:1000B000852E0000852E0000852E0000852E000074
:1000C000852E0000852E0000852E0000852E000064
:1000D000852E0000852E0000852E0000852E000054
:1000E000852E0000852E0000852E0000852E000044
:1000F000852E0000F9470000852E00005D4F0000AE
:10010000852E0000D9540000852E0000852E0000A9
:10011000852E0000852E0000852E0000852E000013
:10012000852E0000852E0000852E0000852E000003
:10013000852E0000852E0000852E0000852E0000F3
:10014000852E0000852E0000852E0000852E0000E3
:10015000852E0000852E0000852E0000852E0000D3
:10016000852E000079340000852E0000852E0000C9
:10017000852E0000852E0000852E0000852E0000B3
:10018000852E0000852E0000852E0000852E0000A3
:10019000852E0000852E0000852E0000852E000093
:1001A000852E0000852E0000852E0000852E000083
:1001B000852E0000852E0000852E0000574B4CF246
:1001C000205210B51A804DF628121A8000BF00BFC9
:1001D00002F05CFE524B4FF010621A60514A9A6076
:1001E000514ADA60A3F53043203B1A6812F480725A
:1001F00004D14E490A604FF4A8521A604C4B1A7849
:10020000110703D51A7842F008021A70494B4A4C7C
:100210004A482A221A704A4A00239918A14203D256
:10022000195899500433F8E7464B474900228B424E
:1002300002D243F8042BFAE74448454900235A58B0
:100240001A500433B3F5DE7FF9D1424B424A802184
:1002500003F8011B9342FBD1404B3C4A1A60404BD0
:100260008A221A70A3F5805324225A70A0221A7091
:100270009A799207FCD59A79D406FCD4394A9379B5
:1002800003F00C03082B374BF9D103221A714022DB
:100290005A719A799006FCD5324A9179314B4906C8
:1002A000FBD5314A314911600221516020221A7078
:1002B0009A7902F00C020C2AFAD12D4B2D4A1A60C1
:1002C0002D4B2E4A1A6000225A60072243F8042C54
:1002D0002B4AC3F80C2D62B602F08EFF134B1B683D
:1002E000DA0705D5274802F04DFE274B274A1A604A
:1002F000274B1B785B0609D5234C244A236893427D
:1003000004D1204802F03EFE0023236006F038F9B5
:1003100002F0C2FD03F08EFEFEE700BF0E20054096
:1003200030800440823F04000100002B14D00340C1
:1003300002D0074000E00740EC96FF1FE873000082
:100340006087FF1FEC96FF1F509AFF1F0082FF1F60
:100350000000000000E400E05FE400E008ED00E0E1
:100360000050064000400640448004400000030165
:1003700004800440C010050014E000E0FF76010096
:10038000000020203BD282581CE00340A5C3945AB1
:1003900000F00740FFFFFFFFFFFFFFFFFFFFFFFF32
:1003A000FFFFFFFFFFFFFFFFFFFFFFFFFFFFFFFF5D
:1003B000FFFFFFFFFFFFFFFFFFFFFFFFFFFFFFFF4D
:1003C000FFFFFFFFFFFFFFFFFFFFFFFFFFFFFFFF3D
:1003D000FFFFFFFFFFFFFFFFFFFFFFFFFFFFFFFF2D
:1003E000FFFFFFFFFFFFFFFFFFFFFFFFFFFFFFFF1D
:1003F000FFFFFFFFFFFFFFFFFFFFFFFFFFFFFFFF0D
:10040000FFFFFFFFFFFFFFFFFFFFFFFFDEF9FFFF23
:1004100010B5054C237833B9044B13B10448AFF33E
:1004200000800123237010BDEC96FF1F0000000028
:10043000E873000008B5064B1BB106480649AFF348
:1004400000800648036813B1054B03B1984708BD07
:1004500000000000E8730000F096FF1FEC96FF1FFD
:100460000000000010B50D20012102F0CDFD0D208F
:10047000012102F097FD4FF47A7002F0A7FE0D20E3
:10048000002102F08FFD4FF46B7003F0DBFD04469A
:10049000044900F015FE044B1C600D20012102F000
:1004A00081FD10BD0897FF1F0C97FF1F08B5024B79
:1004B000186800F091FE08BD0C97FF1F08B50248B0
:1004C000402102F0D9FB08BD0897FF1F2DE9F04F2E
:1004D00083B00190804681464FF0000A5746019A4A
:1004E00010684446C8F8E400C8F8F0A0D9F8043011
:1004F000C8F8F830D9F83C30C8F8FC30D9F8743076
:10050000C8F80031D9F8AC30C8F80431C8F808711F
:10051000C8F80C715FFA8AF13A469BB202F0AEFB62
:10052000D9F83C30C8F8F4304FF4FA7002F04EFEBF
:10053000D8F8F420D8F808319A4248D04FF0010B8F
:10054000D4F80831D4F8F820934202DAC4F808212C
:1005500005E0D4F8FC209342C8BFC4F80821D4F8C1
:10056000F400D4F808311B1A83EAE372A2EBE372B9
:1005700093FBF2F313B9C4F80C7109E0002B02DD10
:10058000C4F80CB104E0002BBCBF0222C4F80C215B
:100590001844C4F8F400D4F8E46094F8F05005F07E
:1005A00015FED4F8E81005F065FED4F8EC1005F05F
:1005B00059FD05F0AFFF83B2304629463A4602F0B6
:1005C0005DFBD4F8F420D4F808319A42B8D10AF18E
:1005D000010A08F12C0809F10409BAF10E0F7FF4A1
:1005E0007EAF019A02F55373C2F8943302F5577344
:1005F000C2F8983302F55B73C2F89C3302F55F735F
:10060000C2F8A03302F56373C2F8A433D2F854439E
:10061000D4F82080E569A769C5EB080005F0D6FD90
:1006200006466069381A05F0D1FD0146304605F0EE
:10063000D5FE06466060404605F0C8FD8046384657
:1006400005F0C4FD0146304605F014FE0146404663
:1006500005F006FDA0602068217B0022ABB202F00D
:100660000DFB636A6269934201DA626203E0A26988
:100670009342C8BF62622269636A9B1A83EAE3718C
:10068000A1EBE37193FBF1F313B90021A16208E040
:10069000002B02DD0121A16203E0002BBCBF02217F
:1006A000A162D01820612668257B05F08FFD616866
:1006B00005F0E0FDA16805F0D5FC05F02BFF83B245
:1006C00030462946002202F0D9FA019BD3F8504364
:1006D000D4F82080E569A769C5EB080005F076FD30
:1006E00006466069381A05F071FD0146304605F08E
:1006F00075FE06466060404605F068FD8046384657
:1007000005F064FD0146304605F0B4FD0146404663
:1007100005F0A6FCA0602068217B0022ABB202F0AD
:10072000ADFA636A6269934201DA626203E0A26928
:100730009342C8BF62622269636A9B1A83EAE371CB
:10074000A1EBE37193FBF1F313B90021A16208E07F
:10075000002B02DD0121A16203E0002BBCBF0221BE
:10076000A162D01820612668257B05F02FFD616805
:1007700005F080FDA16805F075FC05F0CBFE83B2A5
:1007800030462946002202F079FA019AD2F84C4309
:10079000D4F82080E569A769C5EB080005F016FDCF
:1007A00006466069381A05F011FD0146304605F02D
:1007B00015FE06466060404605F008FD8046384656
:1007C00005F004FD0146304605F054FD0146404663
:1007D00005F046FCA0602068217B0022ABB202F04D
:1007E0004DFA636A6269934201DA626203E0A269C8
:1007F0009342C8BF62622269636A9B1A83EAE3710B
:10080000A1EBE37193FBF1F313B90021A16208E0BE
:10081000002B02DD0121A16203E0002BBCBF0221FD
:10082000A162D01820612668257B05F0CFFC6168A5
:1008300005F020FDA16805F015FC05F06BFE83B204
:1008400030462946002202F019FA0027019BC3F81E
:100850005873D3F89853AC68D4F820A0E669D4F85C
:100860001890C6EB0A0005F0B1FC80466069C0EB49
:10087000090005F0ABFC0146404605F0AFFD80469F
:100880006060504605F0A2FC8246484605F09EFC9A
:100890000146404605F0EEFC0146504605F0E0FBFF
:1008A000A0602068217B3A46B3B202F0E7F9636AA0
:1008B0006269934201DA626203E0A2699342C8BFAF
:1008C00062622269636A9B1A83EAE371A1EBE371B6
:1008D00093FBF1F313B90021A16208E0002B02DDC4
:1008E0000121A16203E0002BBCBF0221A162D0184C
:1008F00020612768267B05F069FC616805F0BAFC79
:10090000A16805F0AFFB05F005FE83B2384631461D
:10091000002202F0B3F96C68D4F82090E669D4F8AC
:100920001880C6EB090005F051FC07466069C0EB72
:10093000080005F04BFC0146384605F04FFD074620
:100940006060484605F042FC8146404605F03EFCAA
:100950000146384605F08EFC0146484605F080FB0E
:10096000A0602068217B0022B3B202F087F9636A9D
:100970006269934201DA626203E0A2699342C8BFEE
:1009800062622269636A9B1A83EAE371A1EBE371F5
:1009900093FBF1F313B90021A16208E0002B02DD03
:1009A0000121A16203E0002BBCBF0221A162D0188B
:1009B00020612768267B05F009FC616805F05AFC78
:1009C000A16805F04FFB05F0A5FD83B2384631461E
:1009D000002202F053F92C68D4F82090E669D4F88C
:1009E0001880C6EB090005F0F1FB07466069C0EB13
:1009F000080005F0EBFB0146384605F0EFFC074622
:100A00006060484605F0E2FB8146404605F0DEFBAB
:100A10000146384605F02EFC0146484605F020FB0D
:100A2000A0602068217B0022B3B202F027F9636A3C
:100A30006269934201DA626203E0A2699342C8BF2D
:100A400062622269636A9B1A83EAE371A1EBE37134
:100A500093FBF1F313B90021A16208E0002B02DD42
:100A60000121A16203E0002BBCBF0221A162D018CA
:100A700020612768267B05F0A9FB616805F0FAFB79
:100A8000A16805F0EFFA05F045FD83B2384631461E
:100A9000002202F0F3F80027EF60019AD2F89C538D
:100AA000AC68D4F820A0E669D4F81890C6EB0A0028
:100AB00005F08CFB80466069C0EB090005F086FB01
:100AC0000146404605F08AFC80466060504605F0CD
:100AD0007DFB8246484605F079FB0146404605F01D
:100AE000C9FB0146504605F0BBFAA0602068217B97
:100AF0003A46B3B202F0C2F8636A6269934201DA1D
:100B0000626203E0A2699342C8BF62622269636ABB
:100B10009B1A83EAE371A1EBE37193FBF1F313B941
:100B20000021A16208E0002B02DD0121A16203E0A7
:100B3000002BBCBF0221A162D01820612768267B50
:100B400005F044FB616805F095FBA16805F08AFAA1
:100B500005F0E0FC83B238463146002202F08EF800
:100B60006C68D4F82090E669D4F81880C6EB0900C8
:100B700005F02CFB07466069C0EB080005F026FB7A
:100B80000146384605F02AFC07466060484605F0F5
:100B90001DFB8146404605F019FB0146384605F02D
:100BA00069FB0146484605F05BFAA0602068217B9E
:100BB0000022B3B202F062F8636A6269934201DA1A
:100BC000626203E0A2699342C8BF62622269636AFB
:100BD0009B1A83EAE371A1EBE37193FBF1F313B981
:100BE0000021A16208E0002B02DD0121A16203E0E7
:100BF000002BBCBF0221A162D01820612768267B90
:100C000005F0E4FA616805F035FBA16805F02AFA01
:100C100005F080FC83B238463146002202F02EF8FF
:100C20002C68D4F82090E669D4F81880C6EB090047
:100C300005F0CCFA07466069C0EB080005F0C6FA7B
:100C40000146384605F0CAFB07466060484605F095
:100C5000BDFA8146404605F0B9FA0146384605F02E
:100C600009FB0146484605F0FBF9A0602068217B9E
:100C70000022B3B202F002F8636A6269934201DAB9
:100C8000626203E0A2699342C8BF62622269636A3A
:100C90009B1A83EAE371A1EBE37193FBF1F313B9C0
:100CA0000021A16208E0002B02DD0121A16203E026
:100CB000002BBCBF0221A162D01820612768267BCF
:100CC00005F084FA616805F0D5FAA16805F0CAF963
:100CD00005F020FC83B238463146002201F0CEFFF9
:100CE0000027EF60019BD3F8A053AC68D4F820A094
:100CF000E669D4F81890C6EB0A0005F067FA80465A
:100D00006069C0EB090005F061FA0146404605F054
:100D100065FB80466060504605F058FA82464846BA
:100D200005F054FA0146404605F0A4FA0146504643
:100D300005F096F9A0602068217B3A46B3B201F035
:100D40009DFF636A6269934201DA626203E0A2690D
:100D50009342C8BF62622269636A9B1A83EAE371A5
:100D6000A1EBE37193FBF1F313B90021A16208E059
:100D7000002B02DD0121A16203E0002BBCBF022198
:100D8000A162D01820612768267B05F01FFA6168F0
:100D900005F070FAA16805F065F905F0BBFB83B2B8
:100DA00038463146002201F069FF6C68D4F8209083
:100DB000E669D4F81880C6EB090005F007FA074683
:100DC0006069C0EB080005F001FA0146384605F0FD
:100DD00005FB07466060484605F0F8F98146404645
:100DE00005F0F4F90146384605F044FA0146484654
:100DF00005F036F9A0602068217B0022B3B201F033
:100E00003DFF636A6269934201DA626203E0A269AC
:100E10009342C8BF62622269636A9B1A83EAE371E4
:100E2000A1EBE37193FBF1F313B90021A16208E098
:100E3000002B02DD0121A16203E0002BBCBF0221D7
:100E4000A162D01820612768267B05F0BFF9616890
:100E500005F010FAA16805F005F905F05BFB83B217
:100E600038463146002201F009FF2C68D4F8209062
:100E7000E669D4F81880C6EB090005F0A7F9074623
:100E80006069C0EB080005F0A1F90146384605F09D
:100E9000A5FA07466060484605F098F98146404645
:100EA00005F094F90146384605F0E4F90146484654
:100EB00005F0D6F8A0602068217B0022B3B201F0D3
:100EC000DDFE636A6269934201DA626203E0A2694D
:100ED0009342C8BF62622269636A9B1A83EAE37124
:100EE000A1EBE37193FBF1F313B90021A16208E0D8
:100EF000002B02DD0121A16203E0002BBCBF022117
:100F0000A162D01820612768267B05F05FF961682F
:100F100005F0B0F9A16805F0A5F805F0FBFA83B279
:100F200038463146002201F0A9FE0027EF60019A01
:100F3000D2F8A4532C68D4F820A0E669D4F818900D
:100F4000C6EB0A0005F042F980466069C0EB090073
:100F500005F03CF90146404605F040FA80466060E5
:100F6000504605F033F98246484605F02FF9014610
:100F7000404605F07FF90146504605F071F8A06043
:100F80002068217B3A46B3B201F078FE636A626959
:100F9000934201DA626203E0A2699342C8BF6262CF
:100FA0002269636A9B1A83EAE371A1EBE37193FB05
:100FB000F1F313B90021A16208E0002B02DD012149
:100FC000A16203E0002BBCBF0221A162D018206106
:100FD0002768267B05F0FAF8616805F04BF9A168EF
:100FE00005F040F805F096FA83B238463146002203
:100FF00001F044FE6C68D4F82080E569A769C5EB70
:10100000080005F0E3F806466069381A05F0DEF8D6
:101010000146304605F0E2F906466060404605F0BC
:10102000D5F88046384605F0D1F80146304605F03F
:1010300021F90146404605F013F8A0602068217BA5
:101040000022ABB201F01AFE636A6269934201DAD0
:10105000626203E0A2699342C8BF62622269636A66
:101060009B1A83EAE371A1EBE37193FBF1F313B9EC
:101070000021A16208E0002B02DD0121A16203E052
:10108000002BBCBF0221A162D01820612668257BFD
:1010900005F09CF8616805F0EDF8A16804F0E2FF46
:1010A00005F038FA83B230462946002201F0E6FD09
:1010B0000023019AC2F8A83303B0BDE8F08F00BF47
:1010C000F8B504468E46424E051D37460FCF0FC574
:1010D0000FCF0FC50FCF0FC597E8030085E80300BA
:1010E00004F13C0506F138070FCF0FC50FCF0FC530
:1010F0000FCF0FC597E8030085E8030004F17405DE
:1011000006F170070FCF0FC50FCF0FC50FCF0FC55B
:1011100097E8030085E8030004F1AC05A8360FCE7C
:101120000FC50FCE0FC50FCE0FC596E8030085E89B
:10113000030004F5CA73C4F84C3304F51C73C4F8F7
:10114000503304F1E403C4F854330023C4F8583393
:1011500004F5E072C4F85C2304F51172C4F860234E
:1011600004F58872C4F86423C4F8683304F5067281
:10117000C4F86C2304F53272C4F8702304F5B47219
:10118000C4F87423C4F8783304F5F672C4F87C23E9
:1011900004F52772C4F8802304F59E72C4F88423F2
:1011A000C4F8883304F53D73C4F88C3304F54873F0
:1011B000C4F89033C4F800E0704601F0DBFD20680D
:1011C000044901F0F7FD2046FFF780F92046F8BDFD
:1011D000E46E0000000070422DE9F0410546D0F8B1
:1011E0009463B468636A6269934201DA626203E0FD
:1011F000A2699342C8BF62622269636A9B1A83EA4A
:10120000E371A1EBE37193FBF1F313B90021A16248
:1012100008E0002B02DD0121A16203E0002BBCBF2E
:101220000221A162D0182061D4F80080277B04F04D
:10123000CDFF616805F01EF8A16804F013FF05F00A
:1012400069F983B240463946002201F017FD7468FF
:10125000636A6269934201DA626203E0A2699342BF
:10126000C8BF62622269636A9B1A83EAE371A1EBD9
:10127000E37193FBF1F313B90021A16208E0002BA5
:1012800002DD0121A16203E0002BBCBF0221A162AB
:10129000D0182061D4F80080277B04F097FF6168A4
:1012A00004F0E8FFA16804F0DDFE05F033F983B235
:1012B00040463946002201F0E1FC3468636A626905
:1012C000934201DA626203E0A2699342C8BF62629C
:1012D0002269636A9B1A83EAE371A1EBE37193FBD2
:1012E000F1F313B90021A16208E0002B02DD012116
:1012F000A16203E0002BBCBF0221A162D0182061D3
:101300002768267B04F062FF616804F0B3FFA168E0
:1013100004F0A8FE05F0FEF883B2384631460022FC
:1013200001F0ACFCD5F89863B468636A62699342D3
:1013300001DA626203E0A2699342C8BF6262226975
:10134000636A9B1A83EAE371A1EBE37193FBF1F308
:1013500013B90021A16208E0002B02DD0121A16286
:1013600003E0002BBCBF0221A162D0182061D4F899
:101370000080277B04F02AFF616804F07BFFA168EE
:1013800004F070FE05F0C6F883B2404639460022EC
:1013900001F074FC7468636A6269934201DA626204
:1013A00003E0A2699342C8BF62622269636A9B1A22
:1013B00083EAE371A1EBE37193FBF1F313B900212D
:1013C000A16208E0002B02DD0121A16203E0002BF5
:1013D000BCBF0221A162D0182061D4F80080277B15
:1013E00004F0F4FE616804F045FFA16804F03AFEE1
:1013F00005F090F883B240463946002201F03EFCE9
:101400003468636A6269934201DA626203E0A26946
:101410009342C8BF62622269636A9B1A83EAE371DE
:10142000A1EBE37193FBF1F313B90021A16208E092
:10143000002B02DD0121A16203E0002BBCBF0221D1
:10144000A162D01820612768267B04F0BFFE616886
:1014500004F010FFA16804F005FE05F05BF883B20C
:1014600038463146002201F009FCD5F89C63B46887
:10147000636A6269934201DA626203E0A26993429D
:10148000C8BF62622269636A9B1A83EAE371A1EBB7
:10149000E37193FBF1F313B90021A16208E0002B83
:1014A00002DD0121A16203E0002BBCBF0221A16289
:1014B000D0182061D4F80080277B04F087FE616893
:1014C00004F0D8FEA16804F0CDFD05F023F883B246
:1014D00040463946002201F0D1FB7468636A6269B4
:1014E000934201DA626203E0A2699342C8BF62627A
:1014F0002269636A9B1A83EAE371A1EBE37193FBB0
:10150000F1F313B90021A16208E0002B02DD0121F3
:10151000A16203E0002BBCBF0221A162D0182061B0
:10152000D4F80080277B04F051FE616804F0A2FE2D
:10153000A16804F097FD04F0EDFF83B24046394600
:10154000002201F09BFB3468636A6269934201DA0E
:10155000626203E0A2699342C8BF62622269636A61
:101560009B1A83EAE371A1EBE37193FBF1F313B9E7
:101570000021A16208E0002B02DD0121A16203E04D
:10158000002BBCBF0221A162D01820612768267BF6
:1015900004F01CFE616804F06DFEA16804F062FDB9
:1015A00004F0B8FF83B238463146002201F066FBF2
:1015B000D5F8A063B468636A6269934201DA626233
:1015C00003E0A2699342C8BF62622269636A9B1A00
:1015D00083EAE371A1EBE37193FBF1F313B900210B
:1015E000A16208E0002B02DD0121A16203E0002BD3
:1015F000BCBF0221A162D0182061D4F80080277BF3
:1016000004F0E4FD616804F035FEA16804F02AFDF1
:1016100004F080FF83B240463946002201F02EFBE1
:101620007468636A6269934201DA626203E0A269E4
:101630009342C8BF62622269636A9B1A83EAE371BC
:10164000A1EBE37193FBF1F313B90021A16208E070
:10165000002B02DD0121A16203E0002BBCBF0221AF
:10166000A162D0182061D4F80080277B04F0AEFD81
:10167000616804F0FFFDA16804F0F4FC04F04AFF87
:1016800083B240463946002201F0F8FA3468636AB2
:101690006269934201DA626203E0A2699342C8BFC1
:1016A00062622269636A9B1A83EAE371A1EBE371C8
:1016B00093FBF1F313B90021A16208E0002B02DDD6
:1016C0000121A16203E0002BBCBF0221A162D0185E
:1016D00020612768267B04F079FD616804F0CAFD6B
:1016E000A16804F0BFFC04F015FF83B23846314610
:1016F000002201F0C3FAD5F8A4532C68636A62692A
:10170000934201DA626203E0A2699342C8BF626257
:101710002269636A9B1A83EAE371A1EBE37193FB8D
:10172000F1F313B90021A16208E0002B02DD0121D1
:10173000A16203E0002BBCBF0221A162D01820618E
:101740002768267B04F042FD616804F093FDA168E0
:1017500004F088FC04F0DEFE83B2384631460022F5
:1017600001F08CFA6C68636A6269934201DA626222
:1017700003E0A2699342C8BF62622269636A9B1A4E
:1017800083EAE371A1EBE37193FBF1F313B9002159
:10179000A16208E0002B02DD0121A16203E0002B21
:1017A000BCBF0221A162D01820612668257B04F00D
:1017B0000DFD616804F05EFDA16804F053FC04F0C7
:1017C000A9FE83B230462946002201F057FABDE84F
:1017D000F08100BF0369D3F83801D3F83431C01A5F
:1017E000704700BF704700BF0369D3F84422B2F5C9
:1017F000817F09D8D3F84422501CC3F84402134413
:1018000083F83C11012070470123037100207047C9
:1018100030B40369D3F84442B4F5817F1ED8D3F8BD
:101820004442C4F581740134D3F844522B4403F587
:101830009E73944202D201220271224632B18D1867
:1018400011F8014B03F8014BA942F9D10369D3F810
:1018500044121144C3F84412104602E001230371FC
:10186000002030BC704700BF38B50446084B036009
:10187000036993F84822022A08D1D3F864522DB1A3
:10188000284602F0BDFB284602F0E0FB204638BDAA
:10189000D06F000010B4002202714FF47A7484609B
:1018A0000273064A026041734FF41B74044A04FB3E
:1018B000012101615DF8044B704700BFD06F00004B
:1018C0004088FF1F012814BF01200220704700BF7D
:1018D00070B504460D46C3681B7813F0200F40F026
:1018E000B680836880211970C3681221197090F83E
:1018F0004932012B0BD022B9002380F84832012055
:1019000070BD531EDBB2012B00F2A38000E0012268
:1019100025B94FF08071504B196005E0012D03D1BE
:101920004FF000714C4B1960022A40F08C80D4F8C3
:1019300064624EB9082002F085FB0646002102F0E1
:1019400001FBC4F864627EB13379102B0CD13046B0
:1019500002F056FB304602F079FB0023C4F86432F3
:10196000012084F8480270BD002D30D133689A8B75
:1019700092B2998B42F008029A83D4F864321979B2
:1019800010313648364A42F821001A7953119B002B
:1019900003F1604303F5614302F01F02012101FAE4
:1019A00002F21A60D4F864321B689A8B92B2998B57
:1019B00042F002029A83D4F864321B7903F1804327
:1019C00003F5043300221A7096221A7033E0012DB9
:1019D00031D1D4F864321B689A8B92B2998B42F061
:1019E00008029A83D4F86432197910311D481C4AD0
:1019F00042F821001A7953119B0003F1604303F56B
:101A0000614302F01F02012101FA02F21A60D4F8C8
:101A100064321B689A8B92B2998B42F002029A83CD
:101A2000D4F864321B7903F1804303F504330022B8
:101A30001A7097221A70002384F85A32022384F80D
:101A40004832012070BD012084F8480270BD00209A
:101A500070BD012070BD00BF00E100E0552B00000B
:101A60000082FF1F652B000070B4254BA3FB0145CE
:101A7000AD092D02A3FB02439B09B5FBF3F5B5F5B8
:101A8000A05F38DB1F4A012302E00133382B05D069
:101A900052F8044FB5EB042FF7DA93B15A1E194CE4
:101AA00054F82260A5EB0626002EB8BF764254F803
:101AB0002340A5EB0425002DB8BF6D42AE42D8BF30
:101AC00013464268104CE45C14700E4A52F82330FE
:101AD000B1FBF3F3C0F84C320C4B994203D9836944
:101AE00004221A7009E08369094AA2FB0101C1F3CB
:101AF0000751197001E00023E3E770BC704700BF95
:101B0000D34D6210E86F0000C8700000FF6BDC026C
:101B1000819F5E162DE9F84F06460D4617461C4676
:101B20009DF82830002B00F08480C268127812F0F3
:101B3000200F75D17DE0012F05D9012D73D1BA1E7B
:101B4000012A09D902E04FF0010901E04FF0000934
:101B5000B9F1000F02D169E04FF00109002B32D03A
:101B600096F84B32002B14BF4FF0020B4FF0000BD6
:101B700096F84A32032B26D8DFE803F0020B141D37
:101B80001120594601F040FA1020594601F03CFA64
:101B900019E01220594601F037FA1320594601F096
:101BA00033FA10E01E20594601F02EFA1D20594646
:101BB00001F02AFA07E01F20594601F025FA1A2001
:101BC000594601F021FA8DB917B1012F07D00DE068
:101BD000214BC3F80080043BC3F8008019E01F4B81
:101BE000C3F80080043BC3F8008012E0012D10D13F
:101BF000022F08D0032F0CD1194BC3F800A00433D7
:101C0000C3F800A005E0174BC3F80080043BC3F8FD
:101C1000008086F84A7286F84B424846BDE8F88F45
:101C20000020BDE8F88F0020BDE8F88F4846BDE8E9
:101C3000F88F002C40F203220CBF4FF41978904625
:101C400040F2036240F26461002C0CBF8A46924667
:101C5000002D7FF472AF6EE704A004400CA0044096
:101C600000D004402CB0044070B582B004469DF80A
:101C700018000D4629B92F490E6846F040060E603F
:101C800006E0012904D12B490E6846F080060E605B
:101C900084F84922002184F851123AB9636920225C
:101CA0001A7022681170E269117011E062690028EF
:101CB00037D12DE05B00DBB21370E2694300DBB289
:101CC00005E04000C0B21070E2695B00DBB2137047
:101CD00000230093204629469DF81C209DF82030C3
:101CE000FFF718FF20461449099AFFF7BDFE20466A
:101CF00029469DF82820FFF7EBFD94F849321BB9DF
:101D0000A36880221A7012E0A368C0221A700EE045
:101D10002021117022685B00DBB21370E26900239E
:101D2000D5E72821117022689842C3D8C9E702B0CC
:101D300070BD00BF34800440006CDC022DE9F04F20
:101D400083B082468B4690F84A32032B4BD8DFE8AB
:101D500003F02D3002051E261D242CE01F261A2418
:101D600029E02046494601F01DF92B46013B7FF44E
:101D7000FDAF2046414601F015F92B46013B7FF4AB
:101D8000FDAF304601F032F918B9013F17F0FF07F7
:101D9000E7D100218AF851129AF84A229AF84B3278
:101DA000009150465946FFF7B5FE1CE0112610245D
:101DB00001E0122613249AF84B32002B304614BF50
:101DC0000221002101F020F92046012101F0EAF86A
:101DD0002046012101F018F90B274FF00009A0253A
:101DE0004FF00108CDE703B0BDE8F08F2DE9F843CF
:101DF000054688461646994601F0C6F90EB9D5F84B
:101E0000686201F0C1F90746AB681A7812F0200F3A
:101E10000ED0B4221A7032E0EC68247814F0200F4F
:101E200006D1002385F84932AB68B0221A7006E06B
:101E3000002EF1D001F0A8F9C01B8642ECD8AB68A7
:101E40001B7813F0200F0ED128464146FFF776FF8E
:101E5000EB681B7813F0200F05D1002385F8493279
:101E6000AB68B0221A70AB681B7803F0200303F054
:101E7000FF0023B9042385F85132BDE8F88395F8B3
:101E80004832013BDBB2012B38D801F00FF8B8F132
:101E9000000F03D0B8F1010F03D005E01A4B1B78F7
:101EA00004E01A4B1B7801E0174B1B78834228DBB8
:101EB0000F2804DC012089F80000BDE8F883B8F1A0
:101EC000000F03D0B8F1010F08D00FE0A0F110020D
:101ED000D2B20D4B1A700120BDE8F883A0F11002B8
:101EE000D2B20A4B1A700120BDE8F883A0F11002AB
:101EF000D2B2054B1A700120BDE8F8830120BDE87D
:101F0000F8830120BDE8F88318E400E019E400E05C
:101F10000369490083F83C1103690122C3F8442294
:101F200000230371026982F8513270472DE9F043B2
:101F300083B0054614461F4600238DF80730D0F8BD
:101F40004432002B00F0C7800FB9D0F86872EB68FC
:101F500012221A7028463A460DF10703FFF746FF92
:101F6000002800F0B88095F848321BB19DF8072092
:101F7000002A53D001F008F98146012385F8513237
:101F800085F8504200264FF002082AE02B69AA1972
:101F900092F83C211A70EC68217811F0020FFBD006
:101FA00084F80080EB681978C9B211F0100F08D0DE
:101FB000072285F8512210221A70AB6880221A700D
:101FC00089E011F0010F0BD01EB9052385F85132BD
:101FD00002E0062385F85132AB6880221A707AE05D
:101FE0000136D5F844329E4207D2002FCED001F000
:101FF000CBF8C9EB00008742C8D8D5F84432B342C9
:102000008CBF0423002385F8513295F85032012B00
:10201000AB680CBF8022B0221A705CE05A1ED2B2AC
:10202000012A58D8012285F8512285F85042002211
:10203000C5F84022022B14D1D5F84432042B18D80D
:102040000FE013689B6833B91368002101201872F0
:1020500059729972D972136800221A765A769A7652
:10206000DA76AB68F0221A702B6995F83C211A7069
:1020700031E0012385F85A32D5F8642205F59F70C6
:10208000D5F84442033C11680B68002308601168CE
:10209000012008714B711168CB71116808724B7285
:1020A0008B72CB7211686042C8601068C18BA1B29C
:1020B000C1831268D08AD182D5F864222969106858
:1020C0000469016110680375437510688371B1F18B
:1020D000804FB9D3B5E703B0BDE8F0832DE9F043F5
:1020E00083B0044616469DF828700B9D00208DF89D
:1020F0000700002B00F04D81B3F5827F03D3082346
:1021000084F8513245E1C4F854320023C4F8343124
:10211000C4F838310DB9D4F86852E36812221A7045
:1021200020462A460DF10703FFF760FE002800F065
:10213000308194F8483223B19DF80720002A00F03E
:10214000958001F021F88046022384F8513284F80A
:1021500050722369720042F00102D2B21A70E26832
:10216000137813F0020FFBD002231370E268137888
:10217000DBB213F0100F08D0072384F8513210237C
:102180001370A36880221A7003E113F0010F06D0C8
:10219000052384F85132A36880221A70F9E00323E2
:1021A00084F85132D4F85432012BA3680CBFA82212
:1021B000A0221A7023691B780226002745E00B78BD
:1021C00013F0020FFBD00E70002D00F0AA8000F07B
:1021D000DBFFC8EB000085428CBF00230123D4F84D
:1021E00038110231D4F85422914205D03BB194F811
:1021F000592222B900E03B46A26882F80090D4F848
:1022000038110131D4F85422914280F09F80002B84
:1022100000F0918094F85922002A40F0AA808AE0C8
:10222000042284F8512201E084F8517294F850227B
:10223000012A06D12022013A7FF4FDAFA268802155
:10224000117023B1012384F859324FF0A809D4F852
:102250003821D4F854329A4280F09B8094F851325D
:10226000DBB2032B40F09580E168A8E75A1ED2B29A
:10227000012A00F28E80022284F8512284F85072E2
:10228000934244D1D4F85432042B40D9012384F82A
:102290005A32D4F864322169186802680022016059
:1022A0001868027142711868C271B1F1804F02D38F
:1022B0001A68926832B91A680021012010725172AE
:1022C0009172D1721A680023137353739373D3738B
:1022D000D4F8642204F13005D4F8540201381168AE
:1022E0000F690D61116801250D754B7511688B71B2
:1022F00011680D724B728B72CB72136841429961F7
:102300001368D98B81B2D9831368DA8AD982A3681A
:10231000F0221A702369720042F00102D2B21A70E0
:1023200037E0D4F838210232D4F854329A423FF4DC
:1023300062AF3B4663E722691178D4F83821501C1C
:10234000C4F83801224482F830107AE784F85972D0
:10235000A268B021117022691178D4F83821501C7C
:10236000C4F83801224482F83010002B3FF45CAFEF
:1023700056E784F85972A268B02111702269117869
:10238000D4F83821501CC4F83801224482F83010A7
:1023900046E703B0BDE8F083036993F85132043B8C
:1023A000042B0CD8DFE803F0091005070300012017
:1023B000704703207047042070470420704700795D
:1023C000003018BF012070470220704790F851324A
:1023D00013F0FF0F1BD090F85132DBB2052B18D051
:1023E00090F85132DBB2062B15D090F85132DBB2A7
:1023F000072B12D090F85132DBB2042B0FD090F89B
:102400005102C0B2082814BF0020012070470120EB
:10241000704701207047012070470120704701205C
:10242000704700BF70B50446154600F0ADFE0DB90B
:10243000D4F8685200F0A8FE06462046FFF7C6FF13
:1024400000283AD1002DF8D000F09EFE801B854276
:10245000F3D800F099FE801B854210D894F84832DA
:10246000022B0CD194F85A3213F0FF0F07D02046FC
:10247000FFF7ACFF0028FAD0042384F8513294F817
:102480005132DBB2012B09D094F85132DBB2022B6E
:1024900004D094F85132DBB2032B02D1042384F828
:1024A00051328023013B7FF4FDAF94F8513213F099
:1024B000FF0F14BF0020012070BD002DDFD0C8E742
:1024C000F8B507460E461546069C084611461A46BC
:1024D0002346FFF72BFD304629462246FFF7A2FF91
:1024E0003846FFF759FFF8BD70B582B004460D4677
:1024F0001E468BB19DF8183000930799019129462B
:102500003346FFF7EBFD20462946079AFFF78AFF7F
:1025100020B1D4F8380102E0002000E0002002B031
:1025200070BD00BFD0F83421D0F838319A4208D2BB
:10253000D0F834315A1CC0F83421184490F83000D7
:1025400070474FF0FF30704708B50069FFF7EAFFAA
:1025500008BD00BFD0F83421D0F838319A423DBFD1
:10256000D0F83431C01890F830004FF0FF30704789
:1025700008B50069FFF7EEFF08BD00BF38B5044697
:10258000C2681578EDB281680B78DBB213F0200FCA
:1025900000F0C38113F0100F00F0058190F85A325B
:1025A000DBB2022B04D090F85A32DBB2032B4CD1B1
:1025B000D4F864120B689B8B03F080039BB2002B52
:1025C00000F0858294F85A32DBB2022B40F07F8211
:1025D00073E2137813F0800FFBD00A79B54B1A70B1
:1025E000002384F85A32D4F84432013BC4F8403214
:1025F0002369D4F84022224492F83C211A7020E04A
:10260000AD4B1A680B7901219940114219D0AB4AA0
:102610001370D4F864321A79A94B1A70002384F825
:102620005A3215F0100F0CD0072384F85132E368AA
:1026300012221A70A36880221A700023C4F8403254
:1026400038BDE36802221A7038BD90F85132DBB20F
:10265000012B56D115F0100F0DD0002380F85A32FF
:10266000072180F8511212211170826880211170A7
:10267000C0F8403238BD15F0010F0FD0002380F8AC
:102680005A32D0F840321BB9052380F8513202E0AB
:10269000062380F8513280230B702EE0D0F84032B0
:1026A0000133C0F84032D0F8442293420AD30023C9
:1026B00080F8513290F85032012B0CBF8023B023A8
:1026C0000B701AE090F85A32DBB2012B0ED10223C4
:1026D00080F85A32F1230B70D0F864321A79794BB2
:1026E0001A70036990F83D211A7006E00369D0F86A
:1026F0004022024492F83C211A70E36802221A70C8
:1027000038BD90F85132DBB2022B36D115F0100FE4
:1027100008D0072380F85132122313708368802277
:102720001A7038BD15F0010F05D0052380F851321D
:1027300080230B701DE090F85A32DBB2012B0CD1D4
:10274000022380F85A32E1230B70D0F864321A79F0
:102750005C4B1A7003691B780BE0032380F851323D
:10276000D0F85432012B0CBFE823E0230B7003692F
:102770001B78E36802221A7038BD90F85132DBB240
:10278000042B0AD190F85032012B0CBF8023B023C8
:102790000B70C36802221A7038BD80230B70C368A7
:1027A00002221A7038BD90F85A32DBB2022B04D0E4
:1027B00090F85A32DBB2032B56D1D4F864321A683F
:1027C000928B02F0800292B2002A00F0918194F87C
:1027D0005A22D2B2022A40F08B817FE11A79354B1E
:1027E0001A70002384F85A3294F85132DBB2042B69
:1027F0001CBF002384F85132A368B0221A70D4F8A9
:102800005432013BC4F83831D4F838315A1CC4F87A
:10281000382122691278234483F8302094F850320A
:10282000012B1DD12023013B7FF4FDAFA368802243
:102830001A7015E0204A12681B7901219940114253
:102840000ED01F4A1370D4F864321A791B4B1A70D9
:10285000002384F85A3284F85132A36880221A7017
:10286000E36802221A7038BDD0F838210232D0F85D
:1028700054329A4200F0438190F85132DBB2042B7B
:1028800004D190F85932002B00F03981D4F8382166
:102890000132D4F854329A4280F03F8194F8513298
:1028A000DBB2042B40F02E8194F85932002B40F01B
:1028B000348127E11C8000402C8000401F800040B4
:1028C0001E8000401B800040002384F85132A36822
:1028D000B0221A70D4F838315A1CC4F83821226951
:1028E0001278234483F8302094F85032012B06D11B
:1028F0002023013B7FF4FDAFA36880221A7094F877
:102900005132DBB2042B04D194F85932002B00F081
:102910000E81E36802221A7038BD15F0100F08D03E
:102920001023137015F0400F06D1C36802221A70ED
:1029300038BD15F0400F60D094F85132DBB20A2B4D
:1029400004D1D4F85C32002B40F0F58015F0040F70
:102950001ED0092384F851320023C4F84432A368FE
:10296000D0221A7023691B785B0884F85232D4F89D
:10297000603203B19847D4F844320BB984F83C3143
:10298000236994F83C211A700123C4F8403230E0E6
:10299000002384F8583294F84A32012B05D11220D2
:1029A0006949032200F070FB15E02BB9112066493C
:1029B000032200F069FB0EE0022B05D11E206349C3
:1029C000032200F061FB06E0032B04D11F205F49C6
:1029D000032200F059FB0A2384F851320023C4F883
:1029E0003831A368C0221A7023691B785B0884F809
:1029F0005232E36802221A7038BD13F0100F20D053
:102A000015F0010F15D1D0F84022D0F844329A4287
:102A100008D2D0F840325A1CC0F84022034493F840
:102A20003C2100E0002223691A70A368D0221A70AA
:102A30003FE0C0230B7003691B78002380F85132FC
:102A400037E090F85132DBB20A2B32D1002380F804
:102A5000583290F84A32012B05D112203A4903220C
:102A600000F012FB15E02BB911203749032200F0CA
:102A70000BFB0EE0022B05D11E203449032200F08F
:102A800003FB06E0032B04D11F203049032200F092
:102A9000FBFA23691B78DAB2D4F83831B3F5817FB9
:102AA00007D8D4F83831591CC4F83811234483F8B6
:102AB0003020E36802221A7038BD0A79244B1A705C
:102AC000A368F0221A70032384F85A32B9E594F807
:102AD0005A32DBB2032B7FF493AD7AE51A791C4BA3
:102AE0001A70A368E8221A70032384F85A32B7E6F2
:102AF00094F85A22D2B2032A7FF49CAE6EE6E82301
:102B00000B70C3E6D4F838315A1CC4F83821226956
:102B10001278234483F83020F1E6002384F85932F8
:102B200094F85132DBB2042B7FF4CEAECFE6012312
:102B300084F85932EDE60023C4F83431D4F8380172
:102B4000D4F85C32984701E7192C0000292C0000CA
:102B50001F80004008B502480021FFF70FFD08BDA7
:102B60004088FF1F08B502480121FFF707FD08BD97
:102B7000AC8AFF1F10B50446C3681B7813F0200F02
:102B800024D1002380F8513290F84A32012B03D12E
:102B9000122000F0ADF90FE01BB9112000F0A8F9E8
:102BA0000AE0022B03D11E2000F0A2F904E0032B5F
:102BB00002D11F2000F09CF9D4F85C3253B30022FC
:102BC000C4F83421D4F83801984710BD90F8583231
:102BD0000133DBB280F85832012B03D890F8493228
:102BE000012B17D094F84A32012B03D1122000F0A8
:102BF0007FF910BD1BB9112000F07AF910BD022B2E
:102C000003D11E2000F074F910BD032B02D11F2048
:102C100000F06EF910BD00BF08B502480021FFF7B3
:102C2000A9FF08BD4088FF1F08B502480121FFF732
:102C3000A1FF08BDAC8AFF1F70B50B4E30460021C6
:102C4000FEF728FE094D0A4C30462946224603F07D
:102C500087FC084E30460121FEF71CFE304629460F
:102C6000224603F07DFC70BD2497FF1F6918000009
:102C70003C88FF1F1097FF1F01707047F0B583B0AD
:102C80000F4616461D46154C01782046FFF740F9C1
:102C90002368BF00B91D1B68204601F0FE0198475C
:102CA00023681B682046F1B2984723681B682046BA
:102CB000310A984723681B682046E9B29847236881
:102CC0001B682046290A98472169627B00230093EC
:102CD00020460123FFF7F4FB03B0F0BD2497FF1F4C
:102CE00070B582B006460D460F4C20463178FFF78E
:102CF0000FF920462946FEF777FD2169627B002502
:102D0000009520460123FFF7DBFB2069617B3278C9
:102D1000012300930195FFF7E7FB2069FFF702FC11
:102D2000C0B202B070BD00BF2497FF1F70B582B063
:102D30000E4615460B4C01782046FFF7E9F8204671
:102D40003146FEF751FD20462946FEF74DFD21692B
:102D5000627B0023009320460123FFF7B1FB02B002
:102D600070BD00BF2497FF1F08B500210A46FFF77A
:102D7000DDFF08BD70B586B005460C4B1E695C7B57
:102D80002046FEF79FFD0023009301900293084A1E
:102D9000039201220492304621461A46FEF764FF50
:102DA0002846FFF7E1FF06B070BD00BF2497FF1F64
:102DB000A0860100F8B5064608461D4903F05AFAF8
:102DC00001461C4803F00AFB4FF07E5103F048F91E
:102DD0004FF07C5103F046F903F042F802F04CFE4C
:102DE00004460D4630460021FFF77AFF074600F003
:102DF0006F023046002142F01002FFF797FF204695
:102E0000294603F009F9C2B23046FE21FFF78EFFD2
:102E1000304600213A46FFF789FF052000F0D6F939
:102E200067F05E0230460021D2B2FFF77FFFF8BDA7
:102E30006666663F20BCBE45024B1A6801321A60C6
:102E4000704700BF3897FF1F08B50D4C236813F477
:102E5000802F01D000F010FB236813F4806F01D0A5
:102E600001F0CAFC236813F4006F01D002F076F879
:102E7000236813F4805FE9D002F02EFBE6E700BF81
:102E80003480044008B5FFF7DFFF00BF1022014B7C
:102E90001A80704700200540704700BF024A13683F
:102EA0001844106018467047188DFF1FEFF3138306
:102EB000ABB9EFF31083ABB9EFF3058323B10F2B5D
:102EC00005D9094A985C03E04FF4807000E00020C7
:102ED000EFF311833BB1834238BF184670474FF080
:102EE000FF30704700207047F0E300E0704700BFFC
:102EF0001D4B03EBC000436803F14042A2F5922250
:102F00007C2A18D903F14042A2F594227C2A14D9D4
:102F100003F14042A2F596227C2A10D903F14042E7
:102F2000A2F598227C2A0CD903F14042A2F59A22FC
:102F30007C2A08D970470D4906E00D4904E00D4987
:102F400002E00D4900E00D4972B61A6822F087725E
:102F500022F4803242F080721A60C3F38403084A7C
:102F600041F8232062B67047007100001C8DFF1FDE
:102F7000548DFF1FA48DFF1FD48DFF1FF48DFF1FE5
:102F8000ED2E0000044B00221A6004490A60044A36
:102F9000106010221A60704714D0034004D0034020
:102FA00000D0034021281ED80F4B53F8303093F83F
:102FB000802212F0FF0F08D019B1012283F880207F
:102FC0007047012283F800217047074B03EBC000D4
:102FD000436821B11A6842F003021A6070471A6808
:102FE00022F002021A60704700710000212806D802
:102FF000044B53F8303093F80002C0B27047002001
:10300000704700BF0071000021283AD81D4B03EB28
:10301000C0035B68012919D0042925D0194A52F848
:103020003020002082F8800219B94FF480721A60B3
:103030007047022903D140F203121A607047032936
:103040000CBF4FF4817200221A6070470D4A52F88B
:103050003020012182F880124FF4A2721A601A689F
:1030600022F020021A607047064A52F830200121EF
:1030700082F880124FF4A2721A601A6842F020029D
:103080001A6070470071000070B50D46212861D8A4
:10309000042A5FD8DFE802F00709050B03000B23C1
:1030A00006E00A2304E0082302E00C2300E00923E1
:1030B0001E04294B03EBC0035C68236813F4E06F24
:1030C00002D10021FFF7A0FF244B254AC3F89C2121
:1030D000244AC3F8A021244AC3F8A421234AC3F8F0
:1030E000A821234AC3F8AC2104F14043A3F592235D
:1030F0007C2B18D904F14042A2F594227C2A14D9E1
:1031000004F14043A3F596237C2B10D904F14043EE
:10311000A3F598237C2B0CD904F14043A3F59A2303
:103120007C2B08D970BD134906E0134904E013490C
:1031300002E0134900E0134972B6236823F47023B8
:103140002360C4F3840241F8225043F080731E438D
:10315000266062B670BD00BF007100000082FF1FD4
:103160001188FF1FE587FF1FB987FF1F8D87FF1F8E
:103170006187FF1F1C8DFF1F548DFF1FA48DFF1F34
:10318000D48DFF1FF48DFF1F72B60C4B1B680C4AC9
:1031900012680C49096862B611F0806F02D0322BB8
:1031A00088BF0132C3F5BB33FF330749A1FB0303DB
:1031B0009B094FF47A7000FB0230704718E000E082
:1031C0003897FF1F04ED00E0ABAAAAAA38B5054660
:1031D000FFF7DAFF044625B938BD013D0AD004F5F2
:1031E0007A74FFF7D1FF001BB0F57A7FF5D200F0BB
:1031F00031FFF6E738BD00BF10B5264B4FF4000293
:103200001A604FF080721A604FF000721A604FF02F
:1032100080621A604FF000621A6000201E4B186036
:103220004BF6FF710433196028231C4A13600832DF
:1032300013600832136008321360083213600832DA
:10324000136008321360083213600922144C2260A4
:1032500004F5805404342060043421600434236075
:1032600008342360143C226004F5FE2404342060FA
:103270000C4801600C490B6008310B600B4B1A6065
:1032800000F00AFF4FF4C870FFF7A0FF00F074FCD5
:1032900010BD00BF08E100E0048003400C80034043
:1032A0000080034008800B400C800B4000800B40E6
:1032B00030B40E4B1B7843F002020D4C04EBC204F9
:1032C00060600C48007800280CBF8824C82444EAB9
:1032D0000141074D45F8321080F00100054A107099
:1032E00083F00103014A137030BC7047A497FF1F9D
:1032F0000080FF1F1D98FF1F10B4431E032B11D821
:1033000072B60A4A52F8230050B14268074941F8A0
:103310002320074A32F813400188611A22F813105B
:1033200062B600E000205DF8044B70479497FF1FE1
:10333000389AFF1F013803280DD872B6074B53F88F
:1033400020302BB1002001305B68002BFBD100E066
:10335000002062B670470020704700BFE897FF1F4B
:1033600038B572B601231B491B4C5A1812F8012CB0
:1033700012F0080F24D09A0054F832506DB9164B51
:1033800003EBC20108304860144943F83210144B73
:103390001A78013A1A7062B638BD42F0010254F848
:1033A00032506DB90C4B03EBC201083048600D4937
:1033B00043F832100A4B1A78013A1A7062B638BDD7
:1033C0000133052BD1D162B60022054B1A7000F0F3
:1033D00037FC38BD107200000080FF1F88004000DD
:1033E0001298FF1FC800400010B4431E032B37D8AB
:1033F000400140F010001C4A104472B61B4AD25CD7
:10340000032A09D8DFE802F019021B05083002225E
:1034100016E00830042213E0154A52F823201AB9A6
:10342000134A42F8231003E0124A52F82320516055
:10343000104A42F8231062B612E0032200E005228F
:103440000A4CE25401F10803436000F00803002B2A
:103450000CBF8823C8230A8843EA0243036062B68C
:103460005DF8044B704700BF0080FF1F5097FF1F9F
:10347000E897FF1FF897FF1F2DE9F84FA34CDFF8DF
:10348000E092DFF8E0A2DFF8E0B22578EDB215F0C7
:10349000040F1DD09E4B1B7813F0FF0F16D09D4BD1
:1034A0001B7803F0FF022BB1531EDBB2994A137055
:1034B00003B900BE984B1B7803F0FF0233B1531ED3
:1034C000DBB2954A13700BB900F018FD042323708A
:1034D00015F0080F00F0E48299F80030DBB21D0906
:1034E00040F021828D4D9E0805EBC6035A6855F8C1
:1034F0003630C3F38303013B0C2B00F21082DFE86C
:1035000013F0CB01CB010E020E020E020E020E02D0
:103510000E02E8010E020E020E020D008049136831
:103520000B6052684A607F4A45F8362000227E4987
:103530000A607A490A618A6101217C4A11709BB252
:1035400040F28162934218D8B3F5D06F2ED2B3F512
:10355000817F00F01E8106D8802B00F0C980822B6D
:1035600000F0CC8066E140F20232934200F0268106
:10357000B3F5A06F00F062815CE142F22102934258
:1035800000F0868107D8B3F5086F00F0AB80B3F583
:10359000106F11D04EE142F22122934200F041819E
:1035A00042F22132934200F0498143E1604B5D6871
:1035B000002D40F0188130E1594B9A78544B1A7025
:1035C000564D05F180062B6A13F0800F03D0686A10
:1035D000083800F035FB0835B542F4D1DFF88C81AE
:1035E00000263746534AB05828B1456800F028FBFA
:1035F0000DB12846F9E700234E4973504E4AB350A7
:103600004E4BF05828B1456800F01AFB0DB1284622
:10361000F9E7002349497350494AB35028F8023F5B
:10362000484BFB5C023B032B0AD8DFE803F00206A1
:1036300002060022434BDA5502E00122414BDA55E3
:1036400001370436102ECDD100223F4B1A700125D0
:103650003E4EDFF81C81314F05EB080313F8013CA7
:1036600006F8043B13F0080F2DD000F0C9FA48B15A
:10367000A90007EB451200F108035360344A47F8EC
:10368000312007E0AB00002247F833202E4B1A7898
:1036900001321A7000F0B4FA58B1AB0043F00103E4
:1036A00007EBC30100F108024A601E4A47F83320C5
:1036B00009E0AB0043F00103002247F83320224B1E
:1036C0001A7801321A70AA0042F00201002347F86A
:1036D000313042F0030247F8323001351D4B9E4233
:1036E000BAD11EE20A4B1B781B4D2B700127AAE0B2
:1036F000194D00232B706B700227A4E0084B9B88A8
:10370000042B37D90F22154B1A70C1E080200740D7
:103710001C98FF1FA597FF1F1E98FF1F0080FF1F0B
:103720000898FF1FC80040003C97FF1F1D98FF1F0F
:10373000147200009497FF1F4097FF1FE897FF1F28
:10374000F897FF1F5097FF1F1298FF1FC4200740D4
:1037500088004000D42007401498FF1FC020074075
:10376000902007409420074098200740369AFF1F7A
:1037700010720000A04A0021117051709F4A12F887
:10378000233013F0020F5CD09B4D01232B700227D6
:1037900059E09B4B9B8803F07F03042B02DC984A83
:1037A00052881AB10F22954B1A7071E0934A12F8A1
:1037B000231021F0020102F82310B2E1904B9B8804
:1037C00003F07F03042B02DC8D4A52881AB10F22CA
:1037D0008A4B1A705CE0894A12F8231041F002010A
:1037E00002F823109DE1864B5E889F88854BA3F1EC
:1037F0000C02114633F80C0CB04209D133F80A0C14
:10380000B84205D1360A032E0CBF2F7817891AE06B
:103810000D690C330C32002DEBD10F22774B1A704F
:1038200036E0794B1A68794B1A60754B9A78784B69
:103830001A7076E10F22714B1A7029E000273D467D
:1038400001E002276C4D6E4BDB889F4228BF1F466C
:10385000402F34BF3E46402628463146FFF728FD1C
:103860003544BF1B03D13F2E00F2608110E0402F92
:1038700034BF3E46402628463146FFF719FD354401
:10388000BF1B01D13F2E03D9624B1D60624B1F80CD
:1038900001238AF8003042E0594B198842F2210393
:1038A000994212D15D4BD81D12F8011B03F8011F7C
:1038B0008342F9D15A4B1B68862B02D10F22594BF8
:1038C0001A7000200146FFF7F3FC574B45F83630DD
:1038D00025E0504B1E68BEB14F4FB7F80080B8F1DD
:1038E000400F34BF4546402530462946FFF7E0FCEF
:1038F000C5EB08039BB23B800BB9402D01D1354489
:1039000000E00025434B1D603D4B1B88B3F5A06FC5
:1039100005D13B4B00225A709B788BF80030012375
:103920008AF80030B9E0414E9F0806EBC708D8F886
:103930000420A2F10800013DEDB213F0080F47D0BA
:1039400000F07EF93A4B53F825304BB35A683849AA
:1039500041F8252003F10802C8F80420354A525DD9
:10396000032A12D8DFE802F002060A0E0321314AC8
:1039700051550AE002212F4A515506E005212D4AF2
:10398000515502E004212B4A515518F0080F0CBF85
:103990008822C8221B8842EA034346F837307CE07D
:1039A000244B5B5D032B0BD8DFE803F0777702062F
:1039B0000022204B5A5570E001221E4B5A556CE0F4
:1039C00018F0080F0CBF022203221A4B5A5564E06C
:1039D00056F837301B0C22F8083C002B55D000233A
:1039E00022F8063C42F8043C134B53F825302BBB1D
:1039F000114B43F8250025E01498FF1FC020074015
:103A00000898FF1F207200003897FF1F489AFF1F79
:103A10002C98FF1F3C97FF1F1098FF1F3F9AFF1F16
:103A2000409AFF1FA597FF1FC80040000080FF1F9E
:103A3000E897FF1F5097FF1F9497FF1F3F4B53F8C6
:103A4000253058603D4B43F825003D4B33F81510A9
:103A500032F8082C0A4423F8152000F0D1F860B1A0
:103A600000F10803C8F8043018F0080F354B364A47
:103A700008BF134646F837300FE0002346F83730CA
:103A8000324B1A7801321A7007E018F0080F2D4BEC
:103A90002D4A08BF134646F8373008232370F4E454
:103AA00015F0010F22D02A4902230B700022294B66
:103AB0001A70294B24481860284C5C60986028488C
:103AC000D8601A619A610D20264B1870FF23264892
:103AD00003700838037018300270244A13709F2254
:103AE000234B1A7001230B70BDE8F88F15F0800F7F
:103AF00005D00D221B4B1A708022403B1A7015F026
:103B0000020F06D0184B1A78D2B21A700222083B64
:103B10001A7015F0100F0ED01022164B1A70BDE857
:103B2000F88F00200146FFF7C3FBB1E628460021CD
:103B3000FFF7BEFBACE6BDE8F88F00BF4097FF1F64
:103B4000389AFF1FC8004000880040001298FF1FED
:103B500094200740A497FF1F0080FF1F5497FF1F6A
:103B6000A897FF1FC0200740882007408C200740EF
:103B7000842007408020074008B501F021FD002384
:103B80001B491A465A50C81842600833882BF9D18D
:103B9000184B1A6842F480221A60154BC3F30721B0
:103BA000154A1170C3F30741143211701B0E043211
:103BB0001370FF23343A137008321370783A13707D
:103BC00001238432137000216C3211707C3A13701F
:103BD00070220A4B1A704FF40072A3F241331A603C
:103BE000102203F1C04303F5C8231A7008BD00BFBB
:103BF0000080FF1F348004409C20074049E400E01F
:103C000072B60D4B1A68B2FA82F30B2B02D962B668
:103C1000002070474FF00041D94022EA01020649D6
:103C20000A6062B6054903EBC303DB00C818002233
:103C3000CA504260704700BFFC8DFF1F0084FF1F09
:103C400008B50F4BC31A0F4AA2FB03131B090B2B1A
:103C500014D80D4A12783AB10C4A127812F0FF0FBC
:103C600002D0FFF77DFB08BD72B6094A4FF0004154
:103C700021FA03F311681943116062B608BD00BF51
:103C80000084FF1F398EE3381298FF1F1C98FF1F16
:103C9000FC8DFF1F10B5134B1B6853B9124B1B78DB
:103CA00013F0FF0F18D00320FFF726FB0D4B186011
:103CB000A8B10C4B186843885A1C03441C7A03882B
:103CC0009A4206D3FFF7BCFF0022064B1A6020463B
:103CD00010BD4280204610BD4FF0FF3010BD4FF0A8
:103CE000FF3010BD2898FF1F1C98FF1F08B50D4B13
:103CF0001B6883B90C4B1B7813F0FF0F08D003200F
:103D0000FFF7FAFA074B186028B94FF0FF3008BDEB
:103D10004FF0FF3008BD034B1B685A881344187AD4
:103D200008BD00BF2898FF1F1C98FF1F044B9888F0
:103D3000044B1B681BB11A885B88D31A1844704760
:103D4000389AFF1F2898FF1F10B50B4B1B7813F0F4
:103D5000FF0F0FD0094B186820B1FFF771FF002249
:103D6000064B1A6003242046FFF7C6FA10B1FFF78E
:103D700067FFF8E710BD00BF1C98FF1F2898FF1FC2
:103D80002DE9F84F04460122384B1A708B46002962
:103D900065D00E46DFF8E080DFF8E0909A46344FB9
:103DA000D8F8003083BB99F8003013F0FF0F06D12C
:103DB00000222E4B1A704FF0FF30BDE8F88F4AF208
:103DC000F9250420FFF7B6FA07280AD801238AF854
:103DD0000030FFF715FFC8F80000A8B900238AF8E3
:103DE0000030013D01D03B7833B10122204B1A70E5
:103DF0004FF0FF30BDE8F88F00F02CF999F8003053
:103E000013F0FF0FDDD1D3E700233B70D8F800108B
:103E10004A88C2F14005AE4238BF354602F1080378
:103E20000B442A444A80761B3DB1254414F8012BEB
:103E300003F8012BAC42F9D100E025464B883F2B1B
:103E400007D940230B800420FFF7CEFA0023C8F8DF
:103E500000300522074B1A700EB12C46A0E7002255
:103E6000024B1A705846BDE8F88F00BF1F98FF1F1D
:103E70002498FF1F1E98FF1F2098FF1F1C98FF1FEC
:103E800000B583B002AB03F8010D18460121FFF71E
:103E900077FF03B05DF804FB10B5144B1B7813F0EB
:103EA000FF0F21D00122124B1A70124B196851B129
:103EB0000024114B1C704B880B800420FFF794FAF0
:103EC0000C4B1C600DE0FFF79BFE014630B1002259
:103ED000094B1A700420FFF787FA02E00122064B13
:103EE0001A700022024B1A7010BD00BF1C98FF1FF1
:103EF0001F98FF1F2098FF1F1E98FF1F08B50E4B2D
:103F00001B7813F0FF0F16D10C4B196841B14B8889
:103F10000B800420FFF768FA0022084B1A6008BDE6
:103F2000FFF76EFE014618B10420FFF75DFA08BDE9
:103F30000122034B1A7008BD1F98FF1F2098FF1F16
:103F40001E98FF1F30B472B699B902688AB103791E
:103F50000F2B0ED827490988194111F0010F08D0FD
:103F600003F1007303F59063B2EB431F01D162B616
:103F70003EE0204B1D882946002341FA03F212F04F
:103F8000010F2DD1012202FA03F42543194A1580AD
:103F900062B6DAB2027118490C6844F002040C608F
:103FA00004390C6844F002040C60822413490C604C
:103FB0001A310A7004310A7006390A7007310A7022
:103FC00003F1007303F590635B01036000221A6044
:103FD0005A609A60DA601A615A619A61DA6107E0A0
:103FE0000133102BC9D162B6002303601023037183
:103FF00030BC70472E98FF1F408004400080004076
:1040000003790F2B10D8094A137072B6084B027946
:10401000012101FA02F2198821EA02021A8062B62D
:104020001023037100230360704700BF1A80004013
:104030002E98FF1F08B5FCF715FAFCF737FA00F0C9
:1040400009F8FAE708B502F0C3FA08BD08B502F0AE
:10405000C7FA08BD08B50F4B1B78CBB901220D4B31
:104060001A70FFF763FE08B101F0F4FC00F03AFBB0
:1040700008B101F07BFB00F0E7FE08B101F018FC8D
:1040800001F0B4F908B101F0B5FC0022014B1A703F
:1040900008BD00BF3098FF1F60223A4B1A70E12222
:1040A00001331A70384B1B78082B10D1012203F111
:1040B000804303F56C331A60132334490B6001F518
:1040C000FF2101F2FC710A60314A13601FE00A2BE4
:1040D0000DD139222F4B1A6013232C490B6001F5A7
:1040E000FF2101F2FC710A60294A13600FE00C2BDA
:1040F0000CBF35223D22274B1A60122323490B6047
:1041000001F5FF2101F2FC710A60214A1360224B84
:104110001B7833B10123214A136002F5002213609A
:1041200005E000231D4A136002F5002213601C4BBA
:104130001B78012B06D880231A4A136002F500224F
:1041400013601AE0042B06D88423164A136002F584
:104150000022136011E0082B06D88523114A136052
:1041600002F50022136008E0102B94BF86238723FA
:104170000C4A136002F50022136001220A4B1A70E8
:10418000704700BF00400740008EFF1F0CB0034087
:104190000CB00B4008B003403298FF1F20B0034022
:1041A000018EFF1F24B003403198FF1F30B400235D
:1041B000B0FBF2F402FB14041D46092C94BF30340A
:1041C0003734E4B2CC54B0FBF2F008B10133EFE77E
:1041D0000D4400226A70934207DD885CCC5C8C54ED
:1041E000C8540132013B9A42F7DB084630BC7047A5
:1041F000254B1A6842F480621A600023234A137028
:10420000234A1370234A1370234A1370234A1370EE
:10421000234B1B7813B1152B05D008E040F2133265
:10422000204B1A6003E040F213321F4B1A601F4B01
:104230001B78012B02D0052B05D008E04FF45172FA
:104240001B4B1A6003E04FF451721A4B1A60C0F313
:104250004432194B1A70C0F347125A7000F01F0015
:10426000987204229A700221D9745A7588221A749D
:104270003C22DA704022114B1A704FF40052A3F224
:1042800029331A60704700BF34800440C098FF1F74
:104290003998FF1FC898FF1FC198FF1F3898FF1F4C
:1042A0007C98FF1F40A0044018C00440028EFF1FEE
:1042B00044A004401CC0044000A006402DE400E0DF
:1042C000164B9B7803F0EC0300F00302134310F04D
:1042D000040F18BF43F01003104A937000F00F034F
:1042E000042B04D11346927942F040029A710B4B91
:1042F0005A7902F0EF0210F0100F18BF42F01002CE
:10430000064B5A719B7903F0EF0310F0200F18BF92
:1043100043F01003014A9371704700BF00A00640AC
:1043200010B5144B1B6813F4806F21D0124B1B780F
:1043300013F0FF0F06D0104CFFF78CFE237813F01C
:10434000FF0FF9D14FF400520C4B1A6000230C4AB6
:10435000D37040F203120B490A6004310A600A4A22
:1043600013700A4A13700A4B1B680BB101221A70B2
:1043700010BD00BF348004403898FF1F84E100E086
:1043800000A0064040A00440C098FF1F3998FF1FBE
:104390003498FF1F10B50446094A137813F0FF0F35
:1043A000FBD120460121FEF72FFE20460021FEF71B
:1043B000F9FD044B53F83420034B1A6010BD00BFC5
:1043C0003898FF1F00710000C498FF1F10B40C46FE
:1043D00009B140F08000184B1B78984228D0174A4A
:1043E000126812F4806F21D003F07F03012B02D0FA
:1043F000052B04D006E00022114B1A6002E00022D7
:10440000104B1A60002C0CBF4422602200F07F0386
:10441000012B02D0052B05D008E042F44072084B76
:104420001A6003E042F44072064B1A60024B1870A7
:104430005DF8044B704700BF028EFF1F34800440BC
:1044400044A004401CC00440114B1B7898421ED06D
:10445000104A126812F4806F17D013B1152B04D0D4
:1044600006E000220C4B1A6002E000220B4B1A609F
:1044700010B1152805D008E040F21332064B1A603F
:1044800003E040F21332054B1A60014B187070477D
:104490007C98FF1F3480044040A0044018C00440B2
:1044A00010B50D4B1B6813F4806F12D021280CD867
:1044B0000A4C0B4B53F8303023600121FEF7A4FD6A
:1044C000236800221A70012010BD0020034B1860E1
:1044D00010BD002010BD00BF348004403498FF1F81
:1044E00000710000114B1B6813F4806F1BD0122861
:1044F00004D140F202320E4B1A600DE0142804D1B0
:1045000040F202320B4B1A6006E00B4B5A7B02F072
:10451000FE025A7300207047074B5A7B42F001029B
:104520005A73012070470020704700BF3480044058
:104530000CA0044014C0044000A006402DE9F04146
:1045400007461F4B1B6813F4806F37D01D4B1B6849
:104550000BB101221A701C4B1C780134402C28BF6F
:1045600000241A4D1A4EDFF86C8017E0FEF79EFC0F
:1045700040280FDC337913F0800F0FD02B780133F4
:10458000402B28BF002318F80320D2B2F271DBB20F
:104590002B7003E0FF2801DDFFF75CFD2B78DBB219
:1045A0009C42E3D0FFB20B4B1F5501220A4B1A70FD
:1045B000E4B2054B1C70BC22054BDA70BDE8F081FB
:1045C00034800440C498FF1FC898FF1FC198FF1F84
:1045D00000A006403C98FF1F3898FF1F2DE9F84FB8
:1045E0000746284B1B6813F4806F49D0264B1B6885
:1045F0000BB101221A7007EB010B5F453DD2DFF8CA
:104600009890224EDFF88C80DFF890A099F8004057
:104610000134402C28BF00243578EDB2A54220D1CA
:10462000BC2388F80330FEF741FC402811DC98F8E1
:10463000043013F0800F10D033780133402B28BFA3
:1046400000231AF80320D2B288F80720DBB23370B7
:1046500003E0FF2801DDFFF7FDFC3378DBB29D426C
:10466000E1D017F8013B0AF804300122084B1A7018
:10467000E4B289F800405F45C8D1BC22054BDA702E
:10468000BDE8F88F34800440C498FF1FC198FF1F15
:104690003898FF1F00A00640C898FF1F3C98FF1FD6
:1046A00010B5064B1B7813F0FF0F06D0034CFFF735
:1046B000D1FC237813F0FF0FF9D110BD3898FF1FFC
:1046C000064B1B78DBB2064A1278D2B293422CBF5B
:1046D0003F3202F1FF32D01A704700BFC898FF1F67
:1046E000C198FF1F054B1878C0B2054B1B78DBB291
:1046F000984238BF4030C01A704700BFC098FF1FB3
:104700003998FF1F10B4184B1A78D2B2174B1B7888
:10471000DBB29A4218D001333F2B18D81449C85C39
:10472000C0B2DCB211490C7012490968C9B19A4291
:1047300003D300E00023D31A01E04032D31A1A2B2E
:104740000FDC00230B700CE04FF0FF3009E0084B4A
:104750001878C0B20021054B1970064B1968002962
:10476000E8D15DF8044B7047C098FF1F3998FF1FD0
:104770008098FF1F3498FF1F094B1A78D2B2094B5B
:104780001B78DBB29A4207D00133402B28BF0023AD
:10479000054AD05CC0B270474FF0FF30704700BF91
:1047A000C098FF1F3998FF1F8098FF1F0D4B1B6893
:1047B00013F4806F14D00C4BDA7802F0CB02DA706D
:1047C00040225A74DA7842F03402DA70074B1A78D1
:1047D000D2B2074B1A70074B1B680BB100221A703C
:1047E000704700BF3480044000A006403998FF1F86
:1047F000C098FF1F3498FF1F70B43D4B1B7913F016
:10480000300F33D072B63A4B9B7D03F0FF022BB9C9
:10481000374BDA7940225A7462B627E062B6354BDC
:104820001978C9B2344B1C78E4B2314D334EEB7970
:10483000D8B24B1C402B28BF0023A3421CBFF0540E
:104840001946531E13F0FF02F1D1CAB2294B1A7058
:104850002B4B1B6853B1A1422EBFC4EB0101C4F125
:10486000400409192729C4BF01221A70204BDA78A5
:10487000D2B212F0800F27D01B7913F0800F23D013
:10488000204B1C78E4B2204B1B78DBB29C4210D04A
:1048900017491E4D01E0A3420BD00133402B28BF26
:1048A00000230879E85CC0B2C871087DC0B207284F
:1048B000F1D9DBB214490B700D4B1B7913F0800F4B
:1048C00002D07C210A4BD97012F0400F0ED0084B59
:1048D0001B7913F0400F09D000220D4B1A700D4BBD
:1048E0001B6803B11A703C22014BDA7070BC704730
:1048F00000A00640C098FF1F3998FF1F8098FF1F37
:104900003498FF1FC898FF1FC198FF1F3C98FF1FD6
:104910003898FF1FC498FF1F254B1A6842F40062A5
:104920001A600023234A1370234A1370234A13701A
:10493000234A1370234A1370234B1B78092B02D090
:104940001A2B05D008E040F21332204B1A6003E026
:1049500040F213321E4B1A601E4B1B780A2B02D0FA
:104960001F2B05D008E04FF451721B4B1A6003E077
:104970004FF45172194B1A60C0F34432184B1A703D
:10498000C0F347125A7000F01F00987204229A7008
:104990000221D9745A7588221A743C22DA70402296
:1049A000104B1A704FF40042A3F22B331A60704779
:1049B000348004403C99FF1FD198FF1F4499FF1F8A
:1049C0003D99FF1FD098FF1F038EFF1F0CB00440BE
:1049D00004D00440048EFF1F10B0044000D00440F7
:1049E00000B006402FE400E0164B9B7803F0EC0388
:1049F00000F00302134310F0040F18BF43F010033C
:104A0000104A937000F00F03042B04D113469279DF
:104A100042F040029A710B4B5A7902F0EF0210F00B
:104A2000100F18BF42F01002064B5A719B7903F029
:104A3000EF0310F0200F18BF43F01003014A9371E9
:104A4000704700BF00B0064010B5224B1B6813F43E
:104A5000006F3ED0204B1B7813F0FF0F06D01E4C8A
:104A6000FFF7F8FA237813F0FF0FF9D14FF4004263
:104A70001A4B1A6000221A4BDA701A4B1B78092B5A
:104A800002D01A2B05D008E040F20312164B1A6030
:104A900003E040F20312154B1A60154B1B7803F02C
:104AA0007F030A2B02D01F2B05D008E040F203122F
:104AB000104B1A6003E040F203120F4B1A60002300
:104AC0000E4A13700E4A13700E4B1B680BB1012275
:104AD0001A7010BD34800440D098FF1F84E100E0BC
:104AE00000B00640038EFF1F0CB0044004D0044009
:104AF000048EFF1F10B0044000D004403C99FF1FFB
:104B0000D198FF1FCC98FF1F10B50446094A1378AF
:104B100013F0FF0FFBD120460121FEF775FA204666
:104B20000021FEF73FFA044B53F83420034B1A6080
:104B300010BD00BFD098FF1F007100004099FF1FFB
:104B400010B40C4609B140F08000184B1B78984215
:104B500028D0174A126812F4006F21D003F07F03A7
:104B60000A2B02D01F2B04D006E00022114B1A6042
:104B700002E00022104B1A60002C0CBF442260227D
:104B800000F07F030A2B02D01F2B05D008E042F46F
:104B90004072084B1A6003E042F44072064B1A6000
:104BA000024B18705DF8044B704700BF048EFF1F66
:104BB0003480044010B0044000D00440124B1B78F5
:104BC000984220D0114A126812F4006F19D0092BB4
:104BD00002D01A2B04D006E000220D4B1A6002E02E
:104BE00000220C4B1A60092802D01A2805D008E0D0
:104BF00040F21332064B1A6003E040F21332054BC9
:104C00001A60014B18707047038EFF1F34800440F8
:104C10000CB0044004D0044010B50D4B1B6813F4D5
:104C2000006F12D021280CD80A4C0B4B53F83030AF
:104C300023600121FEF7E8F9236800221A700120A1
:104C400010BD0020034B186010BD002010BD00BF38
:104C500034800440CC98FF1F007100000D4B1B688E
:104C600013F4006F13D017280AD140F202320A4B16
:104C70001A600A4B5A7B42F001025A7301207047B6
:104C8000064B5A7B02F0FE025A7300207047002048
:104C9000704700BF3480044008B0044000B00640B4
:104CA0002DE9F04107461F4B1B6813F4006F37D006
:104CB0001D4B1B680BB101221A701C4B1C78013470
:104CC000282C28BF00241A4D1A4EDFF86C8017E0FC
:104CD000FEF7ECF840280FDC337913F0800F0FD08B
:104CE0002B780133282B28BF002318F80320D2B2D9
:104CF000F271DBB22B7003E0FF2801DDFFF7AAF9A8
:104D00002B78DBB29C42E3D0FFB20B4B1F55012244
:104D10000A4B1A70E4B2054B1C70BC22054BDA70CA
:104D2000BDE8F081348004404099FF1F4499FF1F83
:104D30003D99FF1F00B00640D498FF1FD098FF1F79
:104D40002DE9F84F0746284B1B6813F4006F49D034
:104D5000264B1B680BB101221A7007EB010B5F4554
:104D60003DD2DFF89890224EDFF88C80DFF890A0DB
:104D700099F800400134282C28BF00243578EDB282
:104D8000A54220D1BC2388F80330FEF78FF84028D5
:104D900011DC98F8043013F0800F10D03378013311
:104DA000282B28BF00231AF80320D2B288F8072046
:104DB000DBB2337003E0FF2801DDFFF74BF93378F6
:104DC000DBB29D42E1D017F8013B0AF80430012222
:104DD000084B1A70E4B289F800405F45C8D1BC2284
:104DE000054BDA70BDE8F88F348004404099FF1F0E
:104DF0003D99FF1FD098FF1F00B006404499FF1F48
:104E0000D498FF1F10B5064B1B7813F0FF0F06D088
:104E1000034CFFF71FF9237813F0FF0FF9D110BDF2
:104E2000D098FF1F064B1B78DBB2064A1278D2B22D
:104E300093422CBF273202F1FF32D01A704700BFD5
:104E40004499FF1F3D99FF1F054B1878C0B2054BD1
:104E50001B78DBB2984238BF4030C01A704700BFA1
:104E60003C99FF1FD198FF1F10B4184B1A78D2B28B
:104E7000174B1B78DBB29A4218D001333F2B18D85E
:104E80001449C85CC0B2DCB211490C7012490968FF
:104E9000C9B19A4203D300E00023D31A01E04032A3
:104EA000D31A1A2B0FDC00230B700CE04FF0FF30ED
:104EB00009E0084B1878C0B20021054B1970064B69
:104EC00019680029E8D15DF8044B70473C99FF1F31
:104ED000D198FF1FFC98FF1FCC98FF1F094B1A7831
:104EE000D2B2094B1B78DBB29A4207D00133402B78
:104EF00028BF0023054AD05CC0B270474FF0FF3096
:104F0000704700BF3C99FF1FD198FF1FFC98FF1FFF
:104F10000D4B1B6813F4006F14D00C4BDA7802F0C1
:104F2000CB02DA7040225A74DA7842F03402DA7036
:104F3000074B1A78D2B2074B1A70074B1B680BB19C
:104F400000221A70704700BF3480044000B0064051
:104F5000D198FF1F3C99FF1FCC98FF1F70B43D4BA9
:104F60001B7913F0300F33D072B63A4B9B7D03F0B0
:104F7000FF022BB9374BDA7940225A7462B627E028
:104F800062B6354B1978C9B2344B1C78E4B2314D56
:104F9000334EEB79D8B24B1C402B28BF0023A342E1
:104FA0001CBFF0541946531E13F0FF02F1D1CAB2D0
:104FB000294B1A702B4B1B6853B1A1422EBFC4EB77
:104FC0000101C4F1400409192729C4BF01221A7044
:104FD000204BDA78D2B212F0800F27D01B7913F071
:104FE000800F23D0204B1C78E4B2204B1B78DBB21F
:104FF0009C4210D017491E4D01E0A3420BD0013353
:10500000282B28BF00230879E85CC0B2C871087D4E
:10501000C0B20728F1D9DBB214490B700D4B1B79D4
:1050200013F0800F02D07C210A4BD97012F0400F90
:105030000ED0084B1B7913F0400F09D000220D4B06
:105040001A700D4B1B6803B11A703C22014BDA70C9
:1050500070BC704700B006403C99FF1FD198FF1FFD
:10506000FC98FF1FCC98FF1F4499FF1F3D99FF1F1D
:10507000D498FF1FD098FF1F4099FF1F174B1A6845
:1050800042F480521A600023154A1370154A1370B7
:10509000154A1370154A1370154A137040F21331F4
:1050A000144A11604FF4517104321160C0F344315D
:1050B000114A1170C0F34711517000F01F00907237
:1050C000937013742C23D37040220C4B1A704FF43E
:1050D0000032A3F22D331A60704700BF34800440C1
:1050E000B899FF1F4D99FF1FC099FF1FB999FF1F66
:1050F0004C99FF1F08C0044000C0064031E400E0A6
:10510000164B9B7803F0EC0300F00302134310F0FE
:10511000040F18BF43F01003104A937000F00F0300
:10512000042B04D11346927942F040029A710B4B42
:105130005A7902F0EF0210F0100F18BF42F010027F
:10514000064B5A719B7903F0EF0310F0200F18BF44
:1051500043F01003014A9371704700BF00C006403E
:1051600010B5144B1B6813F4805F21D0124B1B78D1
:1051700013F0FF0F06D0104CFEF76CFF237813F0EE
:10518000FF0FF9D14FF400320C4B1A6000230C4A88
:10519000D37040F203120B490A6004310A600A4AD4
:1051A00013700A4A13700A4B1B680BB101221A7064
:1051B00010BD00BF348004404C99FF1F84E100E023
:1051C00000C0064008C00440B899FF1F4D99FF1F5A
:1051D0004899FF1F10B50446094A137813F0FF0FD2
:1051E000FBD120460121FDF70FFF20460021FDF7EE
:1051F000D9FE044B53F83420034B1A6010BD00BF96
:105200004C99FF1F00710000BC99FF1F10B40C46A1
:1052100009B140F08000104B1B78984219D00F4A1A
:10522000126812F4805F12D003F07F03082B02D1C2
:1052300000220B4B1A60002C0CBF4422602200F0AD
:105240007F03082B03D142F44072054B1A60024BD6
:1052500018705DF8044B7047058EFF1F34800440C2
:105260000CC00440704700BF10B50D4B1B6813F411
:10527000805F12D021280CD80A4C0B4B53F83030E9
:1052800023600121FDF7C0FE236800221A7001206F
:1052900010BD0020034B186010BD002010BD00BFE2
:1052A000348004404899FF1F007100000D4B1B68BB
:1052B00013F4805F13D00E280AD140F202320A4B59
:1052C0001A600A4B5A7B42F001025A730120704760
:1052D000064B5A7B02F0FE025A73002070470020F2
:1052E000704700BF3480044004C0044000C0064042
:1052F0002DE9F04107461F4B1B6813F4805F37D040
:105300001D4B1B680BB101221A701C4B1C78013419
:10531000282C28BF00241A4D1A4EDFF86C8017E0A5
:10532000FDF7C4FD40280FDC337913F0800F0FD058
:105330002B780133282B28BF002318F80320D2B282
:10534000F271DBB22B7003E0FF2801DDFEF782FE75
:105350002B78DBB29C42E3D0FFB20B4B1F550122EE
:105360000A4B1A70E4B2054B1C70AC22054BDA7084
:10537000BDE8F08134800440BC99FF1FC099FF1F35
:10538000B999FF1F00C006405099FF1F4C99FF1F9D
:1053900038B505460C4629B115F8010BFFF7A8FFF3
:1053A000013CF9D138BD00BF10B5064B1B7813F096
:1053B000FF0F06D0034CFEF74DFE237813F0FF0FCE
:1053C000F9D110BD4C99FF1F064B1B78DBB2064A82
:1053D0001278D2B293422CBF273202F1FF32D01A98
:1053E000704700BFC099FF1FB999FF1F054B187880
:1053F000C0B2054B1B78DBB2984238BF4030C01AB0
:10540000704700BFB899FF1F4D99FF1F10B4184B8C
:105410001A78D2B2174B1B78DBB29A4218D00133FC
:105420003F2B18D81449C85CC0B2DCB211490C70CB
:1054300012490968C9B19A4203D300E00023D31A84
:1054400001E04032D31A1A2B0FDC00230B700CE062
:105450004FF0FF3009E0084B1878C0B20021054B2F
:105460001970064B19680029E8D15DF8044B7047A4
:10547000B899FF1F4D99FF1F7899FF1F4899FF1F8B
:10548000094B1A78D2B2094B1B78DBB29A4207D08B
:105490000133402B28BF0023054AD05CC0B27047BF
:1054A0004FF0FF30704700BFB899FF1F4D99FF1FA5
:1054B0007899FF1F054B1A78D2B2054B1A70054B2D
:1054C0001B680BB100221A70704700BF4D99FF1F77
:1054D000B899FF1F4899FF1F2F4B1B7913F0200F1E
:1054E00023D02D4BDB79D9B22C4B1B780133402BC9
:1054F00028BF00232A4A1278D2B29A4204D0294AFD
:10550000D154D9B2254A1170274A116869B1274A86
:105510001278D2B293422EBFC2EB0303C2F1400213
:105520009B18272BC4BF01230B701B4BDB78DBB20E
:1055300013F0800F1CD0184A127912F0800F17D088
:105540001B4A1178C9B2194A1278D2B2914203D1DA
:105550006C21114AD1700BE00132282A28BF0022A9
:105560001449885CC0B20C49C871D2B20F490A70A4
:1055700013F0400F0ED0084B1B7913F0400F09D0E9
:1055800000220D4B1A700D4B1B6803B11A702C22B0
:10559000014BDA70704700BF00C00640B899FF1F8A
:1055A0004D99FF1F7899FF1F4899FF1FB999FF1F59
:1055B000C099FF1F5099FF1F4C99FF1FBC99FF1FF7
:1055C00000B585B072B61B4B70221A7041211A4A81
:1055D00011700F21013A117080221A701A46137847
:1055E00013F0800FFBD0154B186862B6144B98422D
:1055F0009CBF00EB8000400001A90A22FEF7D6FD07
:105600009DF804307BB908E001A9595C31B1918063
:10561000023201330A2BF7D100E0002301335B0093
:10562000084A137003E0074A53800123ECE705B0F2
:105630005DF804FB00000240070002400800024041
:105640007F969800948EFF1F08B503681B68C9B247
:10565000984708BD08B503681B68C9B2984708BDDC
:1056600008B503681B68C9B2984708BD08B5036848
:105670001B68C9B2984708BD08B54B0803F13760ED
:1056800000F5D830B0FBF1F0FEF7B2FD08BD00BF69
:1056900010B514464B0803F1376000F5D830B0FB65
:1056A000F1F0FEF7A5FD2046FEF70AFE10BD00BF93
:1056B00008B5FEF735FE08BD08B50846FEF76AFED8
:1056C00008BD00BF08B50846FEF7BEFE08BD00BF16
:1056D00008B508461146FEF779FE08BD08B508462C
:1056E000FEF7DEFE003018BF012008BD08B50846F1
:1056F000FEF7F8FE003018BF012008BD08B5FEF720
:10570000F1FF08BD08B5FFF737F808BD08B5FEF78B
:10571000F9FF08BD08B5FEF7C3FF08BD08B5FFF7E0
:1057200045F808BD08B5FEF7CBFF08BD08B508462B
:10573000FEF704FF012008BD08B50846FEF7FEFE8F
:10574000012008BD10B5144608461146FEF746FF75
:10575000204610BD38B50D46084601F0FBF9044659
:1057600028462146FEF73AFF204638BD704700BF65
:10577000044B00221A714FF47A7199601A73024A2D
:105780001A607047C499FF1F7072000008B5036863
:105790001B68C9B2984708BD08B503681B68C9B241
:1057A000984708BD08B503681B68C9B2984708BD8B
:1057B00008B503681B68C9B2984708BD08B54B080F
:1057C00003F1376000F5D830B0FBF1F0FFF7A4F833
:1057D00008BD00BF10B514464B0803F1376000F553
:1057E000D830B0FBF1F0FFF797F82046FFF7FCF850
:1057F00010BD00BF08B5FFF727F908BD08B508467A
:10580000FFF782F908BD00BF08B50846FFF7D6F9D3
:1058100008BD00BF08B508461146FFF791F908BD5D
:1058200008B50846FFF7F8F9003018BF012008BD99
:1058300008B50846FFF712FA003018BF012008BD6E
:1058400008B5FFF701FB08BD08B5FFF747FB08BD2A
:1058500008B5FFF709FB08BD08B5FFF7D3FA08BD87
:1058600008B5FFF755FB08BD08B5FFF7DBFA08BD23
:1058700008B50846FFF714FA012008BD08B5084628
:10588000FFF70EFA012008BD10B514460846114670
:10589000FFF756FA204610BD38B50D46084601F010
:1058A00059F9044628462146FFF74AFA204638BDF2
:1058B000704700BF044B00221A714FF47A7199604F
:1058C0001A73024A1A607047D499FF1FD072000001
:1058D00008B503681B68C9B2984708BD08B50368D6
:1058E0001B68C9B2984708BD08B503681B68C9B2F0
:1058F000984708BD08B503681B68C9B2984708BD3A
:1059000008B54B0803F1B76000F55840B0FBF1F063
:10591000FFF7B4FB08BD00BF10B514464B0803F1F8
:10592000B76000F55840B0FBF1F0FFF7A7FB204649
:10593000FFF7E6FB10BD00BF08B5FFF711FC08BD7F
:1059400008B50846FFF746FC08BD00BF08B5084685
:10595000FFF788FC08BD00BF08B508461146FFF7F1
:1059600055FC08BD08B50846FFF77EFC003018BF9F
:10597000012008BD08B50846FFF798FC003018BFA5
:10598000012008BD08B5FFF731FD08BD08B5FFF7D8
:1059900077FD08BD08B5FFF739FD08BD08B5FFF76D
:1059A00003FD08BD08B5FFF785FD08BD08B5FFF785
:1059B0000BFD08BD08B50846FFF79AFC012008BD9D
:1059C00008B50846FFF794FC012008BD10B5144641
:1059D00008461146FFF7DCFC204610BD38B50D46E1
:1059E000084601F0B7F8044628462146FFF7D0FCE8
:1059F000204638BD704700BF044B00221A714FF497
:105A00007A7199601A73024A1A607047E499FF1F0D
:105A10003073000008B5FEF789F908BD08B5FEF738
:105A200039F908BD08B5FEF761F908BD08B5FEF7FC
:105A300033FA08BD08B5FEF787F908BD08B5084672
:105A4000FEF71EFA08BD00BF08B508461146FEF76E
:105A500097F908BD704700BF044B00221A714FF43C
:105A60007A7199601A73024A1A607047F499FF1F9D
:105A700090730000FFFFFFFF2DE9F84FC1F30A57B5
:105A8000A7F2FF36132E02460B4604460D46894602
:105A90008A4680461CDC002E40DB3D4F374107EA3A
:105AA000010C5CEA000C18D037A3D3E9002300F006
:105AB00079F80022002300F0A5FA28B1002D42DB7E
:105AC0002AEA07094FF0000840464946BDE8F88F2A
:105AD000332E06DDB6F5806F31D010461946BDE88D
